:100000002808002029110000C37800001511000005
:100010001511000015110000151100001511000048
:1000200000000000000000000000000011120000AD
:100030001511000000000000B111000015110000B2
:10004000891400008914000089140000891400003C
:10005000891400008914000089140000891400002C
:10006000891400008914000089140000891400001C
:10007000891400008914000089140000891400000C
:10047C0053B94AB9002908BF00281CBF4FF0FF31FF
:10048C004FF0FF3000F00CB8ADF1080C6DE904CE64
:10049C0000F008F8DDF804E0DDE9022304B0704751
:1004AC00704700BF2DE9F04786468C460846089EEB
:1004BC00154674461946002B40F0C1808542B2FAAD
:1004CC0082F245D94AB1C2F1200300FA02FC9540F0
:1004DC0094402EFA03F343EA0C0C4FEA154EA8B2E3
:1004EC00230CBCFBFEF80EFB18CC08FB00F943EA0E
:1004FC000C43994528D9EB1808F1FF3704D29945DC
:10050C0002D9A8F102072B44A3EB0903A4B2B3FB55
:10051C00FEFC0EFB1C330CFB00F044EA0344A0422F
:10052C0014D92C190CF1FF3304D2A04202D9ACF12E
:10053C0002032C44241A43EA07401EB1D440002382
:10054C0034607360BDE8F0874746DDE76346F1E74A
:10055C0092BB431B01214FEA154EAFB2200CB3FBEB
:10056C00FEFC0EFB1C330CFB07F840EA03439845DA
:10057C0061D9EB180CF1FF3004D2984502D9ACF1DB
:10058C0002002B44A3EB0803A4B2B3FBFEFC0EFB4E
:10059C001C330CFB07F744EA0344A7424DD92C1932
:1005AC000CF1FF3304D2A74202D9ACF102032C4464
:1005BC00E41B43EA0040C0E7C2F12003954094409D
:1005CC0020FA03F12EFA03F34FEA154E9040AFB226
:1005DC000343B1FBFEFC0EFB1C10190C0CFB07F8C3
:1005EC0041EA0041884522D969180CF1FF3004D248
:1005FC00884502D9ACF102002944A1EB08019BB259
:10060C00B1FBFEFC0EFB1C110CFB07F743EA01438C
:10061C009F420ED9EB180CF1FF3104D29F4202D944
:10062C00ACF102012B44DB1B41EA004193E760462D
:10063C00E3E76146F7E76046A4E76346B8E7834221
:10064C0006D916B9002108467CE7C6E900E0F9E7AF
:10065C00B3FA83F78FB9834201D3724508D8BEEB46
:10066C00020460EB030301209C461EB9002169E7DC
:10067C003846FAE7C6E9004CF8E7C7F1200CBB4056
:10068C000EFA07F522FA0CF42EFA0CF1BA401C43C0
:10069C0020FA0CF3B8404FEA144901431FFA84FEC8
:1006AC00B3FBF9F809FB18300B0C08FB0EFA43EA04
:1006BC0000439A4540D9E31808F1FF3004D29A451B
:1006CC0002D9A8F102002344A3EB0A0389B2B3FBBD
:1006DC00F9F809FB183308FB0EFE41EA03418E457D
:1006EC002CD9611808F1FF3304D28E4502D9A8F138
:1006FC000203214443EA0040A1EB0E01A0FB029847
:10070C004145CE46434602D306D14D4504D201386D
:10071C00B9EB020E68EB0403002EA7D0B5EB0E026A
:10072C0061EB030101FA0CFC22FA07F3F9404CEAE5
:10073C000303C6E9003199E74046C5E74346D9E7CC
:10074C0080B483B000AF7860034A7B68136000BF4D
:10075C000C37BD4680BC70470000002080B582B0CD
:10076C0000AF78603960044B1B6878689847034683
:10077C0018460837BD4680BD0000002080B58CB0FF
:10078C0000AF7860396006F01AFC0346002B1BD0D2
:10079C0007F11C0300221A605A609A60DA601A6131
:1007AC000223BB77134B3B6207F11C033A68796851
:1007BC00184605F015FFFB6A002B17D007F11C0338
:1007CC00184606F01AFC11E007F10C0300221A601F
:1007DC005A609A60DA600223BB73074B3B6107F1E6
:1007EC000C033A687968184605F0FAFE3037BD46B6
:1007FC0080BD00BF2F7000006907000080B584B079
:10080C0000AF786039600023FB600AE0094B1B687D
:10081C007968FA680A44127810469847FB680133E5
:10082C00FB60FA683B689A42F0D300BF00BF1037F8
:10083C00BD4680BD0000002080B500AF0CF03EFB33
:10084C000346024A9B58184680BD00BF08000000B2
:10085C0080B584B000AFF860B9607A603B6006F098
:10086C0012FC02460CF02AFB034606495A50FB6860
:10087C003A687968B8689847FFF7DEFF0346184670
:10088C0006F008FC0800000080B59AB000AFF860D4
:10089C00B9607A60FB681B8B03F007037B6600234F
:1008AC003B66FB681B8B03F00803002B14BF012372
:1008BC00002387F85B3097F85B30002B12D0BB68B5
:1008CC00012B07D1FB681B8B43F010039AB2FB681A
:1008DC001A830BE1FB681B8B43F020039AB2FB6875
:1008EC001A8303E107F11C03184606F0DEFB002314
:1008FC00FB65BB68022B03D1F86806F0C3FDB8603A
:10090C00BB68002B00F0F18000233B66BB68012B19
:10091C000AD1FB685B693B6607F11C033A6E19460A
:10092C00F86806F0E8FD22E0BB68032B08D1FB68F1
:10093C001B691B68FB650621F86806F086FC16E04F
:10094C00BB68042B08D1FB681B695B68FB65042141
:10095C00F86806F07AFC0AE0BB68052B07D1FB6847
:10096C001B699B68FB650521F86806F06EFCFB684B
:10097C001B8B03F007037A6E9A420CD0FB6808338A
:10098C00184606F0E9FB034683F00103DBB2002BAB
:10099C0001D0012300E0002387F85A3097F85A3031
:1009AC0003F0010387F85A300023BB6097F85A30E4
:1009BC00002B0DD107F11C03184606F0CDFB0346A6
:1009CC0083F00103DBB2002B02D1FB6D002B63D053
:1009DC00FB681B8B43F008039BB27B657B6D9AB263
:1009EC00FB681A837B6D03F007037B66FB6814338B
:1009FC003B657B683B613B69FB64FB6CBB64BB6C1C
:100A0C0083F3118800BFBFF36F8F00BF00BF00BF1F
:100A1C0097F85A30002B04D03A6E796EF86806F0CD
:100A2C0078FC07F11C03184606F096FB034683F08E
:100A3C000103DBB2002B06D007F11C013B6E7A6E72
:100A4C00F86806F0D1FCFB6D002B03D0FB6D32492E
:100A5C00F8689847FB6814337B64EFF311833B64AD
:100A6C003B6CFB632023BB63BB6B83F3128800BF1F
:100A7C00BFF36F8F00BFFB6B7B617B6C7B6300BF35
:100A8C007B6C3B6300BF7B697B60FB681B8B23F03B
:100A9C0008039AB2FB681A83FB681B8B03F01003E4
:100AAC00002B09D0FB681B8B23F010039AB2FB6858
:100ABC001A830123BB600EE0FB681B8B03F0200341
:100ACC00002B08D0FB681B8B23F020039AB2FB6829
:100ADC001A830223BB60FB681B8B03F007037B6646
:100AEC00BB68002B7FF403AF00E000BFFB6814333E
:100AFC00FB627B68BB61BB69BB62BB6A7B627B6A66
:100B0C0083F3118800BFBFF36F8F00BF00BF00BF1E
:100B1C0000BF6837BD4680BD3974000080B483B017
:100B2C0000AF78607B68044A1A60002318460C37C3
:100B3C00BD4680BC704700BF08D9000030BFFFF72E
:100B4C00FDBF00BF80B400AF034A044B13441846EA
:100B5C00BD4680BC704700BF0000000004000000D0
:100B6C0080B582B000AF7860094B1A4609497868A5
:100B7C000CF02DF9064A7B6813447B60064B1A4631
:100B8C00002178680CF030F900BF0837BD4680BDF5
:100B9C00000000004CD800000400000080B400AF3E
:100BAC00074B5A69064B9B689A4205D0054B5B680C
:100BBC00044A43F08053536000BFBD4680BC70476D
:100BCC00F003002000ED00E080B588B000AFF860C5
:100BDC00B9607A601023FB616FF01503BB6100BF35
:100BEC00344B9B6A03F01003002B02D01123FB61E2
:100BFC0000BF304B9B6A03F00803002B02D012237A
:100C0C00FB6100BF2B4B9B6A03F00203002B17D038
:100C1C001323FB6100BF274B5B6B7B61254B9B6AEE
:100C2C0003F08003002B0BD07B69BB6100BFBB685A
:100C3C00002B05D01F4B9B6A1E4A23F08003936246
:100C4C001C4B9B6A03F00103002B02D01423FB61A5
:100C5C0000BF184B9B6A03F02003002B02D0152316
:100C6C00FB6100BF134B9B6A03F01003002B01D1F7
:100C7C00104B9B6A0F4B9B6A03F02003002B05D093
:100C8C000C4B5B6A0B4A23F400535362094B9B6A6F
:100C9C00084A43F0FF0393620121F86806F03AFE1C
:100CAC0003461A467B681A70FB6918462037BD4606
:100CBC0080BD00BF00ED00E080B586B000AFF860ED
:100CCC00B9607A6016237B6100BF2E4B9B6A03F4DC
:100CDC008053002B02D017237B6100BF294B9B6AEA
:100CEC0003F40063002B02D018237B6100BF254B5B
:100CFC009B6A03F40073002B15D019237B6100BF92
:100D0C00204B9B6B3B611F4B9B6A03F40043002BF6
:100D1C0009D000BFBB68002B05D01A4B9B6A194A3F
:100D2C0023F400439362174B9B6A03F48063002BFC
:100D3C0002D01A237B6100BF124B9B6A03F48073B1
:100D4C00002B02D01B237B6108E00E4B9B6A03F443
:100D5C000053002B02D01C237B6100BF094B9B6A04
:100D6C00084A43F47F4393620121F86806F0D2FDF0
:100D7C0003461A467B681A707B6918461837BD46BD
:100D8C0080BD00BF00ED00E080B485B000AF78609E
:100D9C001D23FB6000BF274B9B6A03F00073002BE5
:100DAC0002D01E23FB6000BF224B9B6A03F08073B2
:100DBC00002B02D01F23FB6000BF1E4B9B6A03F469
:100DCC008013002B04D02023FB6000BF0223FB60A8
:100DDC00184B9B6A03F40023002B02D02123FB60E9
:100DEC0000BF144B9B6A03F48023002B02D02223F8
:100DFC00FB6000BF0F4B9B6A03F40033002B02D047
:100E0C002323FB6000BF0B4B9B6A03F48033002B46
:100E1C0002D02423FB6000BF064B9B6A054A6FEA95
:100E2C0003436FEA13439362FB6818461437BD46BD
:100E3C0080BC704700ED00E080B485B000AF7860F6
:100E4C007B689B69FB601B4B5B691A4A43F480739C
:100E5C005361BFF34F8F00BF00BF00BFBFF36F8F55
:100E6C0000BF00BF00BFFB6833F8023C7B81114B15
:100E7C005B69104A23F480735361BFF34F8F00BF3B
:100E8C0000BF00BFBFF36F8F00BF00BF00BF7B89E7
:100E9C0003F47F43B3F55F4F05D17B89DBB2022BA3
:100EAC0001D1012300E0002318461437BD4680BC55
:100EBC00704700BF00ED00E080B584B000AF7860F3
:100ECC0039600023FB6000BF3B6800221A70244B82
:100EDC00DB6A03F00203002B39D1214BDB6A002BB8
:100EEC0037DB1F4BDB6A03F08043002B32D000BF93
:100EFC007868FFF7A1FF0346002B04D000BF7B6886
:100F0C001B68FB6026E0164B9B6ADBB2002B06D0FD
:100F1C003A6801217868FFF757FEF8601AE0104B29
:100F2C009B6A03F47F43002B07D03A680121786851
:100F3C00FFF7C2FE0346FB600CE0094B9B6AB3F55E
:100F4C00803F07D37868FFF71FFFF86002E000BF0F
:100F5C0000E000BFFB6818461037BD4680BD00BFDF
:100F6C0000ED00E080B586B000AFF860B9607A6043
:100F7C0000237B617B6800221A70BB68033B092B42
:100F8C0035D801A252F823F0BD0F0000C90F0000A4
:100F9C00D70F0000E70F0000FB0F0000FB0F000055
:100FAC00FB0F0000FB0F0000FB0F0000F10F000017
:100FBC007968F868FFF780FF78611DE07A68002196
:100FCC00F868FFF701FE786116E07A680021F8688E
:100FDC00FFF772FE03467B610EE0F868FFF7D4FE64
:100FEC00786109E07968F86806F0A0FC04E0B9685B
:100FFC00F86806F0A9FC00BF7B681B7883F001033E
:10100C00DBB2002B03D0B968F86806F079FC7B6979
:10101C0018461837BD4680BD80B594B000AFF86057
:10102C00B9607A603B600023FB64294B5B68C3F3B7
:10103C000803BB640023BB63BB6B7B637B6B83F3D9
:10104C00118800BFBFF36F8F00BF00BF07F13203E1
:10105C007A68B968F86806F082FC78647B6C3B644B
:10106C007B68FB6300BF07F133031A46B96C786CDD
:10107C00FFF778FFF86497F83330002B23D107F192
:10108C0010032022796C18460BF0A1FE97F8323031
:10109C00002B0BD0FB6AC3F30803002B0CD1FB6AAB
:1010AC006FEA53236FEA4323FB6205E0FB6A23F4E8
:1010BC00FF7323F00103FB6207F110031946F86C70
:1010CC0006F0C6FB00E000BF5037BD4680BD00BF38
:1010DC0000ED00E080B400AF0A4B5B69094A43F0B5
:1010EC0010035361074B5B69064A43F480635361F9
:1010FC00044B5B69034A23F00803536100BFBD46F0
:10110C0080BC704700ED00E0EFF30880EFF309813D
:10111C0001B57246FFF780FF01BD00BF01F080FEF4
:10112C00202080F3118808484FF40061401880F3A8
:10113C000988EFF314800221084380F31488BFF36D
:10114C006F8F06F074FC00006809002080B584B035
:10115C0000AF7860114B9B687A689A4216D1EFF316
:10116C000583FB60FB68002B14BF01230023DBB25B
:10117C00002B0BD00A4B5B68094A43F08053536039
:10118C00074B5B6A064A23F400435362786804F009
:10119C00BDFB00BF1037BD4680BD00BFF003002073
:1011AC0000ED00E014498A684FF030001044EFF372
:1011BC00098C80E8F01F202080F31288BFF36F8F1A
:1011CC000E4F4FF000664A698A603E60106F0C4CFF
:1011DC002060506F0023536780F3118802F13000B8
:1011EC0090E8F01F8CF3098802F1000004B506F0BA
:1011FC002CFCBDE804407047F003002004ED00E037
:10120C00280300201EF0040F0CBFEFF30880EFF34F
:10121C000980816911F8021C0229FFD001B57246C0
:10122C0006F033FB01BD00BF80B483B000AF0346B2
:10123C00FB80B7F90630002B0BDBFB8803F01F0299
:10124C000649B7F906305B09012000FA02F241F8B1
:10125C00232000BF0C37BD4680BC704700E100E086
:10126C0080B483B000AF03463960FB80B7F9063019
:10127C00002B0ADB3B68DAB20C49B7F90630520195
:10128C00D2B20B4483F800230AE03B68DAB2084977
:10129C00FB8803F00F03043B5201D2B20B441A76C5
:1012AC0000BF0C37BD4680BC704700BF00E100E0BA
:1012BC0000ED00E080B483B000AF7860084A7B6832
:1012CC005B0952F823207B6803F01F03012101FA0C
:1012DC0003F3134018460C37BD4680BC704700BF63
:1012EC0000E100E080B400AF094B0A4A23F07F0311
:1012FC009360BFF34F8F00BF00BF00BFBFF36F8F72
:10130C0000BF00BF00BF00BFBD4680BC704700BF20
:10131C000000000000ED00E080B483B000AF0D4B86
:10132C00D3F888300B4A23F47003C2F88830EFF3FB
:10133C0014833B603B6823F004037B607B6883F37E
:10134C001488BFF36F8F00BF00BF00BF0C37BD46C2
:10135C0080BC704700ED00E080B487B000AFF8604F
:10136C00B9607A603B607B68203B7B61114A7B698A
:10137C009A617B699B6923F001027B699A613A68E7
:10138C007B691A603A6A7B695A607A6A7B699A60EF
:10139C00BA6A7B69DA607B694FF08072DA617A69CC
:1013AC00FB681A65FB6800225A6700BF1C37BD46F4
:1013BC0080BC70475D080000F0B587B000AFF860E6
:1013CC00B9607A6006F053FB0D4AFB689360FB68CA
:1013DC001B6F0C4A1360FB681B6E7B617B6983F38C
:1013EC000B8800BF7D68BE682C4686F309880020F8
:1013FC00054B98472046002100220023034C204730
:10140C00F003002028030020877A00005D0800000C
:10141C0080B400AF034B10221A6100BFBD4680BCE4
:10142C00704700BF00ED00E080B483B000AF03460E
:10143C003960FB80B7F90630002B0ADB3B68DAB267
:10144C000C49B7F906305201D2B20B4483F8002391
:10145C000AE03B68DAB20849FB8803F00F03043B4F
:10146C005201D2B20B441A7600BF0C37BD4680BC79
:10147C00704700BF00E100E000ED00E080B584B0F3
:10148C0000AFEFF305837B607B68FB60FB68103B70
:10149C00FB60FB68DB00074A1344BB60BB685B68FE
:1014AC00BA68126810469847FFF778FB00BF1037F0
:1014BC00BD4680BD88CF000080B584B000AF0D4A1A
:1014CC000D4B01210D4806F03BFF3B1D00221A601D
:1014DC005A609A600A4B7B60074A094BD31ABB606F
:1014EC003B1D0121184606F03DFF00BF1037BD46DD
:1014FC0080BD00BF0000002000F0022008D90000D1
:10150C008001002080B582B000AF78607968034814
:10151C0006F041FB00BF0837BD4680BD90ED00E0F2
:10152C0080B483B000AF7860034A7B68136300BF5C
:10153C000C37BD4680BC704790ED00E080B483B0A2
:10154C0000AF7860034A7B68936000BF0C37BD46E0
:10155C0080BC704790ED00E080B483B000AF786041
:10156C00034A7B68D36000BF0C37BD4680BC704714
:10157C0090ED00E080B400AF024BDB681846BD462E
:10158C0080BC704790ED00E080B483B000AF786011
:10159C00034A7B68136100BF0C37BD4680BC7047A3
:1015AC0090ED00E080B400AF024B1B691846BD46BD
:1015BC0080BC704790ED00E080B483B000AF074B67
:1015CC001B687B607B681B0ADBB27B607B68DBB2D1
:1015DC0018460C37BD4680BC704700BF90ED00E04C
:1015EC0080B500AF0248FFF79BFF00BF80BD00BF76
:1015FC00AAFF440080B586B000AFF8607A603B600B
:10160C000B46FB72094B1B787B617B69DAB2F97A6A
:10161C000123F86806F011FC78617B69DAB2034BA0
:10162C001A707B6918461837BD4680BD240400200B
:10163C0080B584B000AF78600B46FB700023FB6074
:10164C005EE0FA6813465B0013449B001A467B6805
:10165C0013445B68002B4FD0FA6813465B001344AD
:10166C009B001A467B6813441868FA6813465B00A3
:10167C0013449B001A467B6813445B68194606F0BA
:10168C0000FB01462348FA6813469B0013449B0059
:10169C00034419601F49FA6813469B0013449B00CE
:1016AC000B441B6813F1160F02D16FF015032CE0DD
:1016BC001849FA6813469B0013449B000B441B68A3
:1016CC00154A1278934202DB6FF015031DE01149A5
:1016DC00FA6813469B0013449B000B441B68184686
:1016EC00FA6813469B0013449B000A4A13440433C4
:1016FC00194606F058FB00E000BFFB680133FB60A5
:10170C00FB78FA689A429CDB002318461037BD46DA
:10171C0080BD00BF2C0300202404002080B400AF47
:10172C00084B05225A60BFF34F8F00BF00BF00BFAC
:10173C00BFF36F8F00BF00BF00BF00BFBD4680BCB2
:10174C00704700BF90ED00E080B400AFBFF35F8F37
:10175C0000BF00BF00BF034B00225A6000BFBD4654
:10176C0080BC704790ED00E090B583B000AF254B86
:10177C001C6806F0D8FC03469C4202D94FF0FF339C
:10178C003CE000BFFFF7E0FFFFF72AFF00237B6080
:10179C000BE01C4B5A687B681B0113441946786894
:1017AC0006F027FA7B6801337B60164B1B687A685E
:1017BC009A42EED3134B1B68DAB2134B1A701248D1
:1017CC0006F0D4FC034613F1160F02D16FF015038B
:1017DC0014E00D4B1B783B6006E03B68184606F0A6
:1017EC00EAF93B6801333B6006F09DFC03461A4660
:1017FC003B689342F1DBFFF791FF002318460C374F
:10180C00BD4690BD34D900002404002080B582B0C0
:10181C0000AF78603960044B1B68786898470023E8
:10182C0018460837BD4680BD4003002080B483B005
:10183C0000AF7860074A7B681360074B9B7843F0D6
:10184C000203DAB2044B9A7000BF0C37BD4680BC61
:10185C00704700BF400300200400002080B582B018
:10186C0000AF00237B600C4B073323F007037B6036
:10187C00094B073323F00703C3F1005303F53C3343
:10188C003B603A687968054805F01DFB0023184653
:10189C000837BD4680BD00BF6811002044030020FE
:1018AC0080B483B000AF0B4B1B687B600A4B1B688A
:1018BC003B607B681C2B06D13B68012B01D10123BB
:1018CC0002E0012300E0002318460C37BD4680BC23
:1018DC00704700BF40C3FF0044C3FF0080B584B015
:1018EC0000AF78607B68002B11D00B4B43F00103E9
:1018FC00FB600A4B1B680A4AA2FB03239A0C7B6809
:10190C0002FB03F3BB60FB68B868984700E000BFBC
:10191C001037BD4680BD00BFF0D80000200000206D
:10192C0083DE1B4380B592B000AF504B504A1A6017
:10193C0000F0AAF800BF4F4BD3F82436FB63FB6BC7
:10194C001B0CC3F30903BB63FB6BC3F308037B637F
:10195C0040F2FF133B633B6B5B083A6BD31AFB62A1
:10196C007A6BFB6A53401A46FB6AD31ABB62172385
:10197C007B627B6A043BBA6A02F5C47203FB02F217
:10198C00BB6BDB0013443B623B6A5B0A7B643B6AC8
:10199C0003F48073002B02D07B6C01337B64796C75
:1019AC00354806F00CFD334BD3F82036FB61FB6950
:1019BC00C3F30803BB6140F2FF137B617B695B08D7
:1019CC007A69D31A3B61BA693B6953401A463B6941
:1019DC00D31AFB60FB691B0CC3F30903BB6043F612
:1019EC0098237B607B68A3F5AB531C3BFA6802F22F
:1019FC00173203FB02F2BB684FF47A6101FB03F36D
:101A0C0013441B0A3B603B681C4AA2FB03239B0943
:101A1C003B643A68194BA3FB02139B094FF47A7190
:101A2C0001FB03F3D31AB3F5FA7F02D33B6C0133FA
:101A3C003B643A6C0121104806F0CFFCFFF730FFF5
:101A4C000346002B08D00E4B34221A600D4B1B683A
:101A5C000C4A23F40023136001220021064806F0EF
:101A6C00D1FC002318464837BD4680BD200000201D
:101A7C000020A10700C0FF0000001250D34D6210DF
:101A8C00240612503C06125080B500AF024806F0F6
:101A9C00DFFC00BF80BD00BF002008E080B483B035
:101AAC0000AF0346FB80B7F90630002B0CDBFB883C
:101ABC0003F01F020749B7F906305B09012000FA51
:101ACC0002F2603341F8232000BF0C37BD4680BCC6
:101ADC00704700BF00E100E080B400AF084B1B78FA
:101AEC00002B14BF01230023DBB283F00103DBB214
:101AFC0003F00103DBB21846BD4680BC704700BF43
:101B0C002704002080B582B000AF03463960FB711A
:101B1C00FB793A681946044806F0D2FD034618468C
:101B2C000837BD4680BD00BF00E0105080B500AF47
:101B3C000821034806F08FFD06F042FE00BF80BD71
:101B4C0000E0105080B500AF06F041FE0C210248B9
:101B5C0006F081FD00BF80BD00E0105080B483B062
:101B6C0000AF044B7B607B68403318460C37BD4696
:101B7C0080BC70475403002080B588B000AF0023B0
:101B8C00FB77EFF311837B617B693B612023FB6067
:101B9C00FB6883F3128800BFBFF36F8F00BF3B69F4
:101BAC00BB611B4B1B6843F002031A46184B1A60AF
:101BBC00174B1B6803F00103002B0FD0FB1C1946BD
:101BCC000120FFF79FFFFB78002B07D10123FB7748
:101BDC00FFF7C4FF0346184606F0D2FEBB69BB6094
:101BEC00BB687B607B6883F3118800BFBFF36F8F8A
:101BFC0000BF00BFFB7F002B04D00021054806F07E
:101C0C00ECFE01E0FFF792FF2037BD4680BD00BF20
:101C1C005003002024CF000080B586B000AFEFF356
:101C2C0011833B613B69FB602023BB60BB6883F382
:101C3C00128800BFBFF36F8F00BFFB687B610F4B37
:101C4C001B6823F002030D4A13600C4B1B6803F056
:101C5C000103002B01D1FFF775FF7B697B607B686B
:101C6C003B603B6883F3118800BFBFF36F8F00BFED
:101C7C0000BF00BF1837BD4680BD00BF5003002019
:101C8C0080B588B000AF7860396007F10C03FB6059
:101C9C0007F10C033B6100237B610123BB6107F15E
:101CAC000C030D4A3968786806F02EFFF861FB6961
:101CBC00002B01DAF96909E043F609524FF00003F1
:101CCC0007F10C01084606F07DFC01460B46184650
:101CDC002037BD4680BD00BF3D8B000080B485B071
:101CEC0000AF7860074BFB60FB687A68D31A9B10D7
:101CFC00054A02FB03F3BB60BB6818461437BD46AC
:101D0C0080BC704754030020B76DDBB680B584B03F
:101D1C0000AF786039607868FFF7E0FF0346402237
:101D2C001946064806F08CFEF8603B68F96878683E
:101D3C00984700BF1037BD4680BD00BF24CF0000C0
:101D4C0080B586B002AF786039607868FFF7C6FF5F
:101D5C000146402300933B68074A084806F0A6FE5C
:101D6C00F860FB68002B03DA3B68F96878689847E1
:101D7C0000BF1037BD4680BD5B8B000024CF000038
:101D8C0080B58AB000AF0346FB71FB79012B0AD1F9
:101D9C004F4B1B78012B06D14E4806F0F3FC034643
:101DAC00012B00F091800AF004FA0346002B04D1B9
:101DBC00FFF792FE0346002B01D0012300E0002325
:101DCC0087F8273097F8273003F0010387F827307E
:101DDC0097F82730002B0FD0EFF31183FB61FB69D1
:101DEC00BB6120237B617B6983F3128800BFBFF347
:101DFC006F8F00BFBB6900E000233B6297F8273070
:101E0C0083F00103DBB2002B33D00421314806F000
:101E1C0014FC2EE097F82730002B04D03B6A1846B0
:101E2C0006F0B7FB02E0012006F050FB284B1B78B4
:101E3C00012B1ED1274806F098FC0346002B18D125
:101E4C004FF48471234806F02BFC0346002B10D072
:101E5C004FF484711F4806F00EFC01211D4806F05A
:101E6C0075FC40F20510FFF719FE1021194806F019
:101E7C00F2FB194B1B7807F10B0211461846FFF7C2
:101E8C0041FE034683F00103DBB2002BC2D1FA7A88
:101E9C000F4B1B789A4202D0FB79012BBAD197F8E1
:101EAC002730002B0BD03B6A3B613B69FB60FB6826
:101EBC0083F3118800BFBFF36F8F00BF05E00421CF
:101ECC00044806F0ACFB00E000BF2837BD4680BDDF
:101EDC0010DA000000E0105011DA000080B584B078
:101EEC0000AF0346FB710121114806F0BEFA034610
:101EFC00002B0CD101210F4806F098FCF8600E481D
:101F0C0006F07BFB0D49F86805F080FBB860FB79A7
:101F1C00002B09D0002B08DB013B012B05D8FB79EA
:101F2C001846FFF72DFF00E000BF1037BD4680BDFF
:101F3C00A403002024CF0000AC030020A803002041
:101F4C0080B584B000AF0346FB711C4BFB60FB7982
:101F5C00092B2CD801A252F823F000BF911F0000CE
:101F6C00B11F0000BB1F0000BB1F0000BB1F000007
:101F7C00BB1F0000BB1F0000BB1F0000BB1F0000ED
:101F8C00BB1F00000021F86806F028FCB860BB6895
:101F9C009B6803F00703002B0BD10021F86806F0B7
:101FAC001CFD06E00121F86806F017FD02E000BFF9
:101FBC0000E000BF00BF1037BD4680BD24CF00003D
:101FCC0080B586B000AF78600022012140F2051088
:101FDC0005F00EFD1A4801F083F838613B69194A87
:101FEC00934202D06FF0040326E006F0C8FD01F026
:101FFC0097F80023FB751BE0FB7D1946786806F00B
:10200C00EDFBF860FB7D1946786806F00FFC034683
:10201C000D49184605F054F9B860BB68002B01DA7D
:10202C00BB6809E0FB6801229A60FB7D0133FB75FC
:10203C00FB7D012BE0D9002318461837BD4680BD27
:10204C004D1F00000000AD0B4CD9000080B582B0D4
:10205C0000AF7860124B184606F0C5FD0346002B06
:10206C0001DA796817E07B680A2B04D10C4B0D213F
:10207C00184606F0A9FD0A4A7B68DBB219461046E1
:10208C0006F0A2FD06494FF020024FF0000308466F
:10209C0006F0B3FD79680B4618460837BD4680BD7F
:1020AC0074CF000080B500AF0348FFF7BFFB0248B8
:1020BC00FEF746FB00BF80BD5920000080B500AF85
:1020CC00084B184606F061FD034683F00103DBB2B2
:1020DC00002B02D06FF0120302E0FFF7E3FF0023A6
:1020EC00184680BD74CF000080B584B000AF786016
:1020FC000023FB60786806F040FF0346022B0CD0EF
:10210C00022B0CD8002B02D0012B03D007E0064B7E
:10211C00FB6004E0054BFB6001E0054BFB60FB68DA
:10212C0018461037BD4680BD00A0105000820D50DF
:10213C000004055080B596B002AFF8600B467A608B
:10214C00FB720023FB64A84BBB64002387F8473069
:10215C00F86806F0BFFF3864FB7A03F01F023B6C93
:10216C001B7B5B011343FB63786806F0CEFF0346D1
:10217C0087F83A307A6840F206331340B3F5407F63
:10218C0031D0B3F5407F42D840F2022293423AD08C
:10219C0040F2022293423AD8B3F5007F1BD0B3F53C
:1021AC00007F34D8B3F5837F25D0B3F5837F2ED849
:1021BC00B3F5807F13D0B3F5807F28D8062B16D0CB
:1021CC00062B24D8002B02D0022B18D01FE00023A2
:1021DC0087F839301EE0042387F839301AE00123E0
:1021EC0087F8393016E0052387F8393012E00823D8
:1021FC0087F839300EE0092387F839300AE00223DA
:10220C0087F8393006E0062387F8393002E06FF0A2
:10221C001503E5E0FB7A012202FA03F31946F8688C
:10222C0006F097FFF864FB6C002B01DAFB6CD7E02F
:10223C007B6803F40023002B0AD03B6C5A68FB7AB2
:10224C00012101FA03F31946104606F07CFE0EE05C
:10225C007B6803F48023002B09D03B6C5A68FB7A13
:10226C00012101FA03F31946104606F079FE386C89
:10227C0006F03BFF034683F00103DBB2002B21D0B9
:10228C007B685B0CDBB203F00103DBB287F8383000
:10229C007B6803F48033002B0CBF01230023DBB2DB
:1022AC0087F8373007F13A0007F1370207F13801A8
:1022BC000023019307F1390300930346F86B06F0F2
:1022CC00A0FD83E03B6C103307F13B02F96B184621
:1022DC0008F00BFFB864BB6C434A93420CBF01235C
:1022EC00002387F847307B6803F44033002B06D17A
:1022FC003B6C1033F96B184608F023FF57E007F1DD
:10230C002C0300221A605A6007F1200300221A6085
:10231C005A609A6007F12C037B623B6C103307F117
:10232C002002F96B184608F0AFFEB864BB6C2E4A5D
:10233C00934203D06FF01503FB6447E07B6803F412
:10234C000033002B19D097F839303B777B6803F4B6
:10235C008033002B0CBF01230023DBB27B7797F873
:10236C003A30BB773B6C03F1100007F11C020023E1
:10237C00F96B08F099FEB86411E007F11003002224
:10238C001A605A609A6007F13A033B613B6C103358
:10239C0007F11002F96B184608F076FEB864BB6CB6
:1023AC00114A934203D06FF01503FB640EE097F8CB
:1023BC004730002B09D03B6C103397F83B2011466B
:1023CC00184608F0CCFEB86400E000BFFB7A01228E
:1023DC0002FA03F37A681946F86806F0AEFEFB6C55
:1023EC0018465037BD4680BD0000AD0B80B58EB091
:1023FC0000AFF8607A603B600B46FB72F86806F041
:10240C0069FE7863FB7A03F01F027B6B1B7B5B011D
:10241C0013433B63786B06F068FE034683F00103BD
:10242C00DBB2002B02D06FF085036BE07B68B3F559
:10243C00001F07D17B6B1033396B184608F0BEFEBA
:10244C0000235FE007F1200300221A605A6039680C
:10245C00786806F051FF034687F8203007F1140323
:10246C0000221A605A609A6007F12003BB617B6BF3
:10247C009A68FB7A22FA03F303F00103002B29D1AB
:10248C007B68B3F1A07F25D1386B06F030FD034695
:10249C00002B1FD17B6B103307F12B02396B1846C5
:1024AC0008F023FEF862FB6A184A93420FD17B6B4B
:1024BC00103307F12B021146184608F060FEF86243
:1024CC00FB6A134A934202D06FF00B031AE007F138
:1024DC002B037B627B6B103307F11402396B1846AC
:1024EC0008F0D2FDF862FB6A094A934202D06FF001
:1024FC00150307E07B6B10330122396B184608F08B
:10250C004CFE002318463837BD4680BD0400AD0B89
:10251C000000AD0B80B485B000AF78600023FB6089
:10252C007B68022B02D10A4BFB600AE07B68012B13
:10253C0002D1084BFB6004E07B68002B01D1064BF9
:10254C00FB60FB6818461437BD4680BC704700BF63
:10255C0038CF00004CCF000060CF000080B584B0B5
:10256C0000AF7860786806F0B5FDF860F86806F0A2
:10257C00BCFD034683F00103DBB2002B01D000232A
:10258C002AE0FB681033184608F0CFFD0346002BF9
:10259C0001D0002320E0FB6810330021184608F01E
:1025AC00B4FDB860BB680E4A934202D06FF00403CE
:1025BC0012E0FB68103300220A49184608F086FD29
:1025CC0000220121DB2005F013FA0022012140F248
:1025DC000D1005F00DFA002318461037BD4680BDCE
:1025EC000000AD0B7793000080B584B000AF78602D
:1025FC000023FB60786806F085FF0346022B0CD0A5
:10260C00022B0CD8002B02D0012B03D007E0064B79
:10261C00FB6004E0054BFB6001E0054BFB60FB68D5
:10262C0018461037BD4680BD00A0105000820D50DA
:10263C000004055080B586B000AF7860084611469E
:10264C001A460346FB700B46BB7013467B703B1D52
:10265C001846FFF7C9FF78617A687B69203253F816
:10266C0022303B61114BFB60FB68DB433A69134042
:10267C003B61FA78BB785B001A437B789B001A436A
:10268C0097F820301B021A4397F824301B0413438D
:10269C003A6913433B617A687B692032396943F8A4
:1026AC00221000BF1837BD4680BD00BF0F0F0300BE
:1026BC0080B58CB002AFF8600B467A60FB720023D9
:1026CC0087F827307DE197F827309B00FA68134490
:1026DC001B68DB0ADBB203F00F037B7697F827301D
:1026EC009B00FA6813441B68C3F308033B624FF06A
:1026FC00FF33FB617B7E082B09D87B7EB64AD35C0B
:10270C003B763B6A40F2FF12934206D102E06FF037
:10271C0015035DE14FF0FF333B6297F827309B00C8
:10272C00FA6813441B681B0E382B00F2118101A2AE
:10273C0052F823F0252800003B2800004D2800000B
:10274C0063280000752800008B280000A1280000D9
:10275C005D2900005D2900005D2900005D29000055
:10276C005D2900005D2900005D2900005D29000045
:10277C005D2900005D2900005D2900005D29000035
:10278C005D2900005D2900005D290000B3280000D0
:10279C00D9280000FF280000252900005D29000031
:1027AC005D2900005D2900005D2900005D29000005
:1027BC005D2900005D2900005D2900005D290000F5
:1027CC005D2900005D2900005D2900005D290000E5
:1027DC005D2900005D2900005D2900005D290000D5
:1027EC005D2900005D2900005D2900005D290000C5
:1027FC005D2900005D2900005D2900005D290000B5
:10280C005D2900005D2900005D2900005D290000A4
:10281C005D2900004B2900007B683A6AC3F8042646
:10282C000123FB610123FB760123BB7693E07B68DC
:10283C003A6AC3F80C260023FB760023BB768AE0A9
:10284C007B683A6AC3F810260123FB610123FB76EF
:10285C000123BB767FE07B683A6AC3F80826002325
:10286C00FB760023BB7676E07B683A6AC3F80026D9
:10287C000023FB610123FB760023BB766BE07B68B6
:10288C003A6AC3F804260023FB610123FB7601237B
:10289C00BB7660E07B683A6AC3F808260023FB76B7
:1028AC000023BB7657E07B683A6AC3F8602597F83B
:1028BC0027309B00FA6813441B681B0C03F00103C0
:1028CC00FB610123FB760123BB7644E07B683A6A0B
:1028DC00C3F8642597F827309B00FA6813441B68EB
:1028EC001B0C03F00103FB610123FB760123BB7678
:1028FC0031E07B683A6AC3F8682597F827309B006B
:10290C00FA6813441B681B0C03F00103FB610123E1
:10291C00FB760123BB761EE07B683A6AC3F86C2514
:10292C0097F827309B00FA6813441B681B0C03F0C4
:10293C000103FB610123FB760123BB760BE0042131
:10294C00386A06F0BFFD0123FB760123BB7602E05B
:10295C006FF085033CE03B6AB3F1FF3F2CD03B6A40
:10296C007B61FB69B3F1FF3F03D0F969786906F02D
:10297C007CFD97F827309B00FA6813441B6803F41E
:10298C000043002B03D00023FB760123BB7697F882
:10299C0027309B00FA6813441B685B0ADBB203F018
:1029AC000303D8B2BA7EF97E002301933B7E0093D9
:1029BC0003467869FFF73EFE97F82730013387F816
:1029CC00273097F82720FB7A9A42FFF47CAE00233D
:1029DC0018462837BD4680BDA0D9000080B400AF92
:1029EC00084B1B78002B14BF01230023DBB283F0B0
:1029FC000103DBB203F00103DBB21846BD4680BC19
:102A0C00704700BF2704002080B586B000AF786007
:102A1C000B46FB707B685B687B61786806F03AFF5D
:102A2C0038617B695B691946386906F0FFFE7B6982
:102A3C0018331946386906F0DCFE786807F0E9F8B7
:102A4C00F860FB68002B01D0FB6804E0044978684F
:102A5C0006F02CFE034618461837BD4680BD00BF55
:102A6C00F79B000080B582B000AF0346FB71FB7989
:102A7C001946034807F054F900BF0837BD4680BD1E
:102A8C0000200E5080B584B002AFC7E900010123CD
:102A9C000093D7E90023034801F018FB00BF083767
:102AAC00BD4680BD14000020B0B588B000AFF86002
:102ABC00C7E9002307F05BF9C7E90601D7E906016E
:102ACC00D7E90023904271EB030334BF01230023A9
:102ADC00DBB2002B28D1164BD3E90023D7E9000138
:102AEC0007F02FF94FF000024FF00003420942EAC1
:102AFC00C1624B09C7E90423D7E904014FF0000276
:102B0C004FF000034B0143EAD06342010849D1E97D
:102B1C000001141843EB0105054BC3E900453B6963
:102B2C00184603F007FC00E000BF2037BD46B0BDDF
:102B3C008001002080B500AF07F019F9074BD3E9ED
:102B4C00002307F0FEF84FF000024FF0000342099B
:102B5C0042EAC1624B091346184680BD8001002031
:102B6C0080B582B000AF00220121E42004F040FFC8
:102B7C00002001F0DDF978607B68144A934202D0A2
:102B8C004FF0FF331EE01249012001F033FA786058
:102B9C007B680E4A934209D07B680E4A934202D15D
:102BAC006FF00B030EE04FF0FF330BE00A4B672284
:102BBC001A600A4B1B781846FFF790F90020FFF7B4
:102BCC0051FF002318460837BD4680BD0000AD0BF1
:102BDC001C0000200200AD0BE403002012DA000000
:102BEC002DE9B04F8CB000AFF8610B46FB76FB695A
:102BFC00B3F1FF3F03D0FB6923EAE37301E06FF00D
:102C0C000043FB61FB69DA171C4615464FF00002C6
:102C1C004FF000036B0143EAD4636201C7E90A2356
:102C2C0007F0A5F8D7E90A231418BC604B41FB60E8
:102C3C00D7E90234C7E908341B4BD3E90023D7E9A1
:102C4C000801B0EB020861EB0309B8F1400F79F110
:102C5C00000310D3144BD3E90023D7E90801841ADD
:102C6C003C6161EB03037B61D7E904341A4622F023
:102C7C001F0AA34603E04FF0200A4FF0000B0A4B4B
:102C8C00D3E900231AEB020139604BEB03037B60A1
:102C9C00D7E90034C7E90834D7E90801FFF7F2FE99
:102CAC003037BD46BDE8B08F8001002080B483B0C2
:102CBC0000AF0B4B1B687B600A4B1B683B607B684F
:102CCC001C2B06D13B68012B01D1012302E001230F
:102CDC0000E0002318460C37BD4680BC704700BF8F
:102CEC0040C3FF0044C3FF0080B483B000AF0B4B64
:102CFC001B687B600A4B1B683B607B681C2B06D1F6
:102D0C003B68012B01D1012302E0012300E00023E9
:102D1C0018460C37BD4680BC704700BF40C3FF004F
:102D2C0044C3FF0080B483B000AF78607B681B683D
:102D3C0003F00203002B12D07B681B6803F0010325
:102D4C00002B13D00C4B0922C3F80C250A4B0F2275
:102D5C00C3F80425084B01221A6000BFFDE77B680D
:102D6C00064A1A607B68064A1A6000E000BF0C37FE
:102D7C00BD4680BC704700BF00801050F000FA5078
:102D8C000100FA5080B483B000AF78607B681B6898
:102D9C0003F00203002B12D07B681B6803F00103C5
:102DAC00002B13D00C4B0922C3F80C250A4B0F2215
:102DBC00C3F80425084B01221A6000BFFDE77B68AD
:102DCC00064A1A607B68064A1A6000E000BF0C379E
:102DDC00BD4680BC704700BF00801050F000FA5018
:102DEC000100FA5080B500AF0848FFF79BFF084878
:102DFC00FFF798FF0748FFF7C5FF0748FFF7C2FF2B
:102E0C000648FFF78FFF00BF80BD00BF00C50D5007
:102E1C0008C50D5010C50D5018C50D5000C70D50EC
:102E2C0080B582B000AF364B0122C3F80028FFF703
:102E3C00D9FF344BD3F88C30324A43F44063C2F898
:102E4C008C3006F0A2FF00237B6000237B600FE038
:102E5C002D4A2D497B68803351F8333019467B68F5
:102E6C008033DB0013445B680B607B6801337B6051
:102E7C007B683F2B0ED8244A7B68803352F8333062
:102E8C00B3F1FF3F06D0204A7B68803352F83330D1
:102E9C00002BDDD11D4B1B68002B02D11B4BC82214
:102EAC001A60FFF721FF0346002B07D0184B1B6855
:102EBC00184A934202D8184B184A1A60FFF7F6FECC
:102ECC000346002B08D0164B34221A60154B1B6896
:102EDC00144A23F400231360134B0322C3F8182560
:102EEC00084BD3F88C30074A43F44063C2F88C305B
:102EFC000D4B0022C3F8A02500BF0837BD4680BD8E
:102F0C000000125000ED00E000C0FF004004125021
:102F1C0034C3FF00001D0A184006125040E0A91EE1
:102F2C00240612503C06125000B0045080B586B0F6
:102F3C0000AF786039607B681B687B617B69002B14
:102F4C0001D1124B1EE07B69B3FA83F3DBB2C3F100
:102F5C001F03FB74FB7C012202FA03F3DB437A6947
:102F6C001340FB607B69FA681946786806F033FFFA
:102F7C00034683F00103DBB2002BDCD13B68FA7C07
:102F8C001A70034B18461837BD4680BD0200AD0BB6
:102F9C000000AD0B80B584B000AF78600B46FB70C1
:102FAC007B681B681A46FB7822FA03F303F00103D3
:102FBC00002B01D00E4B16E07B681B68FB60FB7886
:102FCC00012202FA03F3FA681343BB60FB68BA6888
:102FDC001946786806F0FFFE034683F00103DBB266
:102FEC00002BE9D1034B18461037BD4680BD00BFFE
:102FFC000400AD0B0000AD0B80B582B000AF0346F2
:10300C003960FB71FB793A681946044806F0ABFF4E
:10301C00034618460837BD4680BD00BF00E010507F
:10302C0080B588B000AF0346FB71FB79002B02D052
:10303C00012B08D04EE004233B611423FB754FF4A5
:10304C0084733B8307E071233B610423FB754FF4CE
:10305C0080733B8300BF3969204806F00AFFFB7D73
:10306C0019461E4806F022FF3B8B19461B4806F0FA
:10307C002DFF0023FB72FB79012B02D107F10B030F
:10308C0000E00023FB600023FB7642F21073FB612F
:10309C00FB79F9681846FFF7AFFF034683F001038D
:1030AC00DBB2002B05D1FB68002B05D0FB7A002B83
:1030BC0002D00123FB7608E0012006F081FEFB69BB
:1030CC00013BFB61FB69002BE2D1FB7E83F001032A
:1030DC00DBB2002B2037BD4680BD00BF00E0105096
:1030EC0080B485B000AF78600A4BFB600A4B1B794B
:1030FC00002B02D0094BFB6005E0074A7B6813608C
:10310C00054B01221A7100BFFB6818461437BD46E7
:10311C0080BC70470000AD0BE80300200C00AD0B29
:10312C0080B500AF074B1B68002B01D006F080FF69
:10313C0006F097FF03461946034806F05AFF00BFF6
:10314C0000BF80BDE803002000E0105080B584B0C3
:10315C0000AF0346FB71FB79002B02D0012B50D042
:10316C007BE007F108031A4600213D4806F0FBFE00
:10317C000346002B05D007F10803184606F078FF2C
:10318C0032E00021364806F0C6FE0346002B27D05D
:10319C00334806F03DFF03463B7207F1080318461F
:1031AC0006F066FF0346002B1ED02E4B1B68002B2F
:1031BC0004D004212A4806F04EFE4EE000BF4FF426
:1031CC008471274806F097FE034683F00103DBB2B7
:1031DC00002BF4D14FF48471214806F077FE3CE0CB
:1031EC0006F03FFF03463B723B7A19461C4806F03B
:1031FC0000FF4FF484737B810423FB6010237B72EC
:10320C0007E04FF480737B817123FB6000237B729A
:10321C0000BF7B891946124806F058FE7B7A194686
:10322C000F4806F043FE0F4B1B68002B04D0F968C7
:10323C000B4806F010FE10E000BF7B8919460848C9
:10324C0006F059FE034683F00103DBB2002BF4D1E8
:10325C007B891946024806F039FE1037BD4680BD01
:10326C0000E01050E803002080B582B000AF4FF4AE
:10327C008071584806F03FFE0346002B0DD04FF4EA
:10328C008071544806F022FE00BF0121514806F01F
:10329C00F0FD514B1B68002098474FF484714D484A
:1032AC0006F029FE0346002B1FD04FF484714948C9
:1032BC0006F00CFE00BFFB1D1A460021454806F027
:1032CC0052FEFB79002B08D10121424806F091FEF9
:1032DC001021404806F0EAFD07E004213D4806F0C5
:1032EC00C8FD3D4B1B68012098474FF4827139484B
:1032FC0006F001FE0346002B0DD04FF482713548C9
:10330C0006F0E4FD00BF0221324806F0B2FD324B5C
:10331C001B68022098474FF488712E4806F0EBFD8D
:10332C000346002B1AD02C4B00225A714FF4887193
:10333C00284806F0CBFD00BF4FF48871254806F0F5
:10334C0098FD4FF48A71234806F0C0FD20212148D6
:10335C0006F081FD204B1B68072098474FF48A71BB
:10336C001C4806F0C8FD0346002B14D02021194838
:10337C0006F08DFD0346002B0DD04FF48A711548D5
:10338C0006F0A4FD00BF2021124806F072FD124B7E
:10339C001B68082098474FF48C710E4806F0ABFD63
:1033AC000346002B11D00C4B00225A714FF48C7138
:1033BC00084806F08BFD00BF4FF48C71054806F0F1
:1033CC0058FD054B1B680920984700BF0837BD46C0
:1033DC0080BD00BF00E01050E803002080B485B031
:1033EC0000AFF860B9607A60FB70FB68BA6802F5F0
:1033FC00A27253F82220154B1340FA68B96801F5F4
:10340C00A27142F82130FB68BA6802F5A27253F837
:10341C0022207B68190141F6F0730B40F9780904FE
:10342C0001F4403119433B7E1B0503F480130B431D
:10343C0042EA0301FB68BA6802F5A27243F8221053
:10344C0000BF1437BD4680BC704700BF0FE0ECFFD7
:10345C0080B584B000AF78600023FB60786807F01B
:10346C000FFA0346022B0CD0022B0CD8002B02D0E7
:10347C00012B03D007E0064BFB6004E0054BFB601F
:10348C0001E0054BFB60FB6818461037BD4680BD5C
:10349C0000A0105000820D500004055080B586B07D
:1034AC0000AF7860084611461A460346FB700B467F
:1034BC00BB7013467B703B1D1846FFF7C9FF786144
:1034CC007A687B69203253F822303B61114BFB60E8
:1034DC00FB68DB433A6913403B61FA78BB785B00CD
:1034EC001A437B789B001A4397F820301B021A432F
:1034FC0097F824301B0413433A6913433B617A68F1
:10350C007B692032396943F8221000BF1837BD4659
:10351C0080BD00BF0F0F030080B489B000AFF8600E
:10352C00B9607A60164A07F1100307CA83E80700EE
:10353C00FB68FB6117E0FB699B0020333B4453F8AD
:10354C00103C1A6A7B681A60FB699B0020333B4471
:10355C0053F8103C7A6812681A627B6804337B60FB
:10356C00FB690133FB61FA68BB681344FA699A4240
:10357C00E1D300BF00BF2437BD4680BC704700BFFD
:10358C00A0D8000080B483B000AF78607B685B0982
:10359C00064AD25C7B68DBB203F01F03DBB2134438
:1035AC00DBB218460C37BD4680BC704700DA000011
:1035BC0080B483B000AF78607B686C2202FB03F3AD
:1035CC00034A134418460C37BD4680BC704700BFF5
:1035DC002400002090B589B000AFF860B9607A6023
:1035EC003B60B968F86807F041FB7B68002B01D1A0
:1035FC002B4B50E03A687968F86807F0FDFBF861EE
:10360C00FB69002B15DAFB681B791846FFF7D0FF16
:10361C000346603307F1170211461846FFF786FC84
:10362C00B861BB691E4A934201D0BB6933E0FB7D94
:10363C00FB61FB681B791846FFF7BAFF0146FB6973
:10364C007A6841F83320FB681B791846FFF7B0FF06
:10365C000246FB69DB0013443A685A60FB681B792D
:10366C001846FFF7A5FF0446B868FFF78BFF034623
:10367C0019460B46083334F81320FB69DBB25B02A6
:10368C009BB213439BB243F480739AB201F10803CB
:10369C0024F81320024B18462437BD4690BD00BFBA
:1036AC000000AD0B80B582B000AF7860396039682E
:1036BC00786807F0B8F9034683F00103DBB2002BFE
:1036CC0001D0094B0BE03968786807F061FB396869
:1036DC00786807F030FB386807F0FCF8034B1846A5
:1036EC000837BD4680BD00BF0400AD0B0000AD0B1C
:1036FC0080B58AB002AFF860B9607A60B868FFF73D
:10370C0041FF0346FB767B681B68002B3BD0B968F6
:10371C00F86807F0FEF90346002B01D0764BE7E082
:10372C0000237B7500233B757B681B6807F1140233
:10373C0007F115010020019000200090B86807F0F7
:10374C00B2F8FB681B791846FFF732FF0346FA7E86
:10375C00083233F81210FA7E21F0020189B20832D5
:10376C0023F81210FB681B791846FFF721FF03465C
:10377C00FA7E083233F81210FA7E41F0010189B258
:10378C00083223F812107B685B68002B00F09D80D8
:10379C007B685B681B78BB767B685B685B68002B1F
:1037AC0014BF012300237B76B968F86807F094F9FD
:1037BC000346002B04D07B7E002B61D04E4B97E050
:1037CC00FB681B791846FFF7F3FE0246FB7E0833B5
:1037DC0032F81300F97E41F6DF73034098B201F121
:1037EC000803014622F813107B7E002B48D0BB7EC9
:1037FC00032B94BF012300233B763B7E83F0010314
:10380C00DBB2002B01D03C4B72E07B685B685B68E1
:10381C001B78FB75BB7E002B07D1FB681B68FA7D00
:10382C001146184606F0B9FE2AE0BB7E184607F092
:10383C00B1F90346BB75FB681B68FA7D1146184647
:10384C0006F04CFEFB681868F97DBB7DBA6806F083
:10385C0054FEFB681B791846FFF7AAFE0346FA7E56
:10386C00083233F81210FA7D92B2520392B20A4324
:10387C0091B2FA7E41F0200189B2083223F812107D
:10388C00FB681B791846FFF793FE0346FA7E083255
:10389C0033F81210FA7E21F01C0189B2083223F899
:1038AC001210FB681B791846FFF782FE0346FA7E5E
:1038BC00083233F81200BA7E92B2920091B2FA7EBC
:1038CC00014389B2083223F812107B689B68002BE5
:1038DC000BD07B689B681A687B689B685B68B968CF
:1038EC00F868FFF777FEF86101E0044BFB61FB69B8
:1038FC0018462037BD4680BD0400AD0B0000AD0B53
:10390C0090B58BB002AFF860B9607A603B60B86874
:10391C00FFF738FE0346FB777B68002B3DD0B96878
:10392C00F86807F013F90346002B08D0B968F8685B
:10393C0007F096F80346002B01D0424B7EE0B968A5
:10394C00F86807F0AAF80346002B05D07B685B7873
:10395C00012B01D13B4B71E00123FB757B685A1C99
:10396C007B68981C7B6807F1170100240194009375
:10397C000346B86806F097FFFB681B791846FFF7FB
:10398C0017FE0346FA7F083233F81210FA7F41F023
:10399C00030189B2083223F812103B68002B4CD07B
:1039AC00B968F86807F0D2F80346002B01D0254B14
:1039BC0044E03B681B78BB61FB681B68B96918461F
:1039CC0006F0EBFDFB681B791846FFF7F1FD02468C
:1039DC00FB7F083332F81300F97F41F6DF730340A5
:1039EC0098B201F10803014622F813103B685B788A
:1039FC00002B22D0FB6818683B685A783B689B7890
:103A0C0000931346BA68B96906F0B1FDFB681B79DF
:103A1C001846FFF7CDFD0346FA7F083233F8121033
:103A2C00BA6992B2520392B20A4391B2FA7F41F050
:103A3C00200189B2083223F81210034B18462437A0
:103A4C00BD4690BD0400AD0B0000AD0B90B585B02C
:103A5C0000AFF860B9607A60B968F86807F000F8F0
:103A6C000346002B15D0FB681B791846FFF7A0FD09
:103A7C000446B868FFF786FD0346083334F8133064
:103A8C005B0BDBB203F00703DAB27B681A70034BF3
:103A9C0000E0034B18461437BD4690BD0000AD0B3B
:103AAC000400AD0B80B586B002AF78600B46FB709E
:103ABC007B681B791846FFF77BFDB860154BFB60E4
:103ACC0000BFBB6893F86830002B04D0124BFB602E
:103ADC0000BFFB681AE0BB68103346220021184671
:103AEC0009F082F97B681868BB689B6DFA780093C3
:103AFC0000234FF4003106F04DFCBB68012283F823
:103B0C006820BB6801221A6600BFFB681846103794
:103B1C00BD4680BD0000AD0B0C00AD0B80B584B074
:103B2C0000AF786039600023FB6021E0144AFB6829
:103B3C0013441B781A463B461946104606F02DFFD7
:103B4C000346002B11D0FB689B007A6813441A467D
:103B5C000121F86806F001FFFB689B007A681344AA
:103B6C001B68002B01D0012306E0FB680133FB60CE
:103B7C00FB68022BDAD9002318461037BD4680BDEE
:103B8C00FCD9000080B58AB000AF7860396007F1CD
:103B9C000C0300221A605A609A603B685A6E07F157
:103BAC000C0311461846FFF7B9FF00237B6252E065
:103BBC00364A7B6A13441B781A463B6864331946B1
:103BCC00104606F0EAFE0346002B41D038E07B6A33
:103BDC009B0028333B4453F81C3C93FAA3F3B3FAF1
:103BEC0083F33B623B6A03F01F0229497B6A0B4457
:103BFC001B785B011343FB61F869FFF7C3FC0346B9
:103C0C001A463B68083233F812309B0803F007035E
:103C1C00FB7607F10C027B6A9B0013441946386A49
:103C2C0006F0DDFEF86906F086FE0346BB76BB7E29
:103C3C00FA7EF969386807F0F3FAF86906F0A0FE25
:103C4C007B6A9B0028333B4453F81C3C002BBED1B1
:103C5C007B6A01337B627B6A022BA9D93B689B6D23
:103C6C001A464FF40031786806F0D4FB3B685A6E64
:103C7C0007F10C0311461846FFF750FF0346002BC3
:103C8C0093D100BF00BF2837BD4680BDFCD90000D2
:103C9C00F8D9000080B500AF0249034807F041FB9A
:103CAC0080BD00BF2400002000A00D5080B500AFE7
:103CBC000249034807F035FB80BD00BF900000208F
:103CCC0000C0105080B584B000AF78607B68002BCA
:103CDC0011D00B4B43F00103FB600A4B1B680A4AE3
:103CEC00A2FB03239A0C7B6802FB03F3BB60FB680B
:103CFC00B868984700E000BF1037BD4680BD00BFD4
:103D0C0000D900002000002083DE1B4380B400AFEC
:103D1C00044B5B68DB4303F067031846BD4680BC6D
:103D2C00704700BFFC00002080B400AF034B9B68C1
:103D3C0003F067031846BD4680BC7047FC000020AA
:103D4C0080B500AF024807F0A4FE0346184680BDBC
:103D5C0000200E5080B483B000AF0346FB71074BBC
:103D6C009A68FB79012101FA03F31343034A936028
:103D7C0000BF0C37BD4680BC704700BFFC00002064
:103D8C0080B582B000AF0346FB71FB79184607F093
:103D9C0076FF034683F00103DBB2002B01D0094B05
:103DAC000CE0FB79184607F054FF034683F001033F
:103DBC00DBB2002B01D0044B00E0044B1846083753
:103DCC00BD4680BD0800AD0B0400AD0B0000AD0B73
:103DDC0080B584B000AF78607B681B7A184607F01A
:103DEC008BFF0346FB737B681B7A1946164807F05A
:103DFC000FFEFA7B7B681968144813465B0013446A
:103E0C009B0003440C331960FA7B7B6859680F489C
:103E1C0013465B0013449B00034410331960FA7B78
:103E2C007B68187A094913465B0013449B000B44CA
:103E3C00143302461A707B681B7A1846FFF78AFF08
:103E4C0000BF1037BD4680BD00200E50FC00002086
:103E5C0080B582B000AF78607B681B7A1946094840
:103E6C0007F006FE7B681B681946064807F01DFE26
:103E7C007B685B681946034807F026FE00BF0837CD
:103E8C00BD4680BD00200E5080B500AF024807F043
:103E9C0050FD0346184680BD00200E5080B58AB0F8
:103EAC0000AF786079684FF000024FF00003C1E971
:103EBC0000231C4B7B62FFF743FF034683F0010397
:103ECC00DBB2002B04D0184B7B6200BF7B6A24E072
:103EDC00EFF311837B617B693B612023FB60FB6803
:103EEC0083F3128800BFBFF36F8F00BF3B693B6247
:103EFC000E4807F004FD02460B467968C1E9002321
:103F0C003B6AFB61FB69BB61BB6983F3118800BF32
:103F1C00BFF36F8F00BF00BF7B6A18462837BD46C2
:103F2C0080BD00BF0000AD0B0100AD0B00200E509A
:103F3C0090B589B000AF0346FB71284BBB61284B91
:103F4C001B78002B04D0274BBB6100BFBB6941E041
:103F5C00254A07F10C0307CA83E807000021234810
:103F6C0007F075FD07F10C031846FFF771FF67208A
:103F7C0007F054FE0346052B04D01D4BBB6100BF5C
:103F8C00BB6927E00023FB7712E0FC7FFB7F184620
:103F9C0007F08AFE03461946114A23465B00234468
:103FAC009B00134414330A461A70FB7F0133FB77D2
:103FBC00FB7F042BE9D9FA79002367210B4807F022
:103FCC00DFFB0121094807F01EFC054B01221A708A
:103FDC0000BFBB6918462437BD4690BD0000AD0B31
:103FEC00FC0000200C00AD0BACD8000000200E50E3
:103FFC000100AD0B80B586B000AF03463960FB7194
:10400C002A4B7B612A4B5B6803F00103FB6007F1D1
:10401C000C0328491846FEF789FF78617B69234A0F
:10402C00934202D000BF7B693BE03B6800221A70D0
:10403C001F4B5B6823F001031D4A53600020FFF700
:10404C0089FE00BFFFF77CFE0346002B04D01A4B01
:10405C007B6100BF7B6924E0FB791946174807F0A8
:10406C0012FC174B1B68174AA2FB03239A0C13462E
:10407C005B0113443B6102E03B69013B3B613B69E3
:10408C00002B07D0FFF700FF034683F00103DBB2E0
:10409C00002BF1D13B69002B01D10B4B01E000BF90
:1040AC007B6918461837BD4680BD00BF0000AD0BBC
:1040BC00FC000020100100200C00AD0B00200E5065
:1040CC002000002083DE1B430700AD0B80B58CB0B5
:1040DC0000AFF860C7E90023FB681B7A1846FFF7AE
:1040EC004FFEB861BB69224A934202D000BFBB6944
:1040FC003AE0F868FFF76CFEEFF311837B627B6AA2
:10410C00FB622023BB62BB6A83F3128800BFBFF340
:10411C006F8F00BFFB6A7B61FB681B7A19461548E1
:10412C0007F013FCFB68197AD7E90023114807F054
:10413C0021FC7B69FB61FB693B623B6A83F3118861
:10414C0000BFBFF36F8F00BF00BF97F83830002B54
:10415C0008D0FB681B7A1A46012393401946054880
:10416C0007F034FC00BFBB6918463037BD4680BD34
:10417C000000AD0B00200E50F0B589B002AFFFF778
:10418C00C5FD0446FFF7D0FD034623407B617969EA
:10419C002C4807F027FBF860F9682A4807F025FC43
:1041AC00B86000233B6145E027493A6913465B0040
:1041BC0013449B000B4414331B78FB71FB7918469A
:1041CC0007F037FC0346BB80BB88A3F580739B08C4
:1041DC0001229A40BB681340002B28D000BF1A491B
:1041EC003A6913465B0013449B000B440C331B6869
:1041FC00002B1CD014493A6913465B0013449B00F6
:10420C000B440C331C68FD79FB7919460D4807F0FB
:10421C00C5FB0D4E3A6913465B0013449B003344B7
:10422C0010331B68009302460B462846A0473B6997
:10423C0001333B613B69042BB6D900BF00BF1C376F
:10424C00BD46F0BD00200E50FC00002080B582B0B1
:10425C0000AF0B4B7B6005E0786807F089FD7B684D
:10426C0014337B607B68074A934234BF01230023DD
:10427C00DBB2002BF0D100BF00BF0837BD4680BDBC
:10428C0024CF000088CF000080B58CB000AF7860E0
:10429C003960EFF31183FB61FB697B6220233B6286
:1042AC003B6A83F3128800BFBFF36F8F00BF7B6A3A
:1042BC007B611D4B9B68BB6100BF3B68002B0DD025
:1042CC003B68FB62FB6ADB69C3F30803002B14BF7A
:1042DC0001230023DBB2002B00D000BF00BFBA6962
:1042EC003968786807F079FD3968786807F094FDCB
:1042FC003B68002B06D03B68BB62BB6ADB69C3F32F
:10430C000803002B7B693B613B69FB60FB6883F313
:10431C00118800BFBFF36F8F00BF00BFB86907F0F3
:10432C0051FD3037BD4680BDF003002080B483B012
:10433C0000AF03463960FB80B7F90630002B0ADB6F
:10434C003B68DAB20C49B7F906305201D2B20B44D1
:10435C0083F800230AE03B68DAB20849FB8803F0D3
:10436C000F03043B5201D2B20B441A7600BF0C3738
:10437C00BD4680BC704700BF00E100E000ED00E0EE
:10438C0080B584B000AFF860C7E90023FB6803F187
:10439C001800D7E90023034901F072FE00BF103763
:1043AC00BD4680BDD3C80000F0B58FB006AF314B11
:1043BC00FB6129E0FB691E68FB695B68FB60FB69BC
:1043CC009A68BA60FB69D8687860FB691B69FA69FE
:1043DC005269F9698969F869C069FC69246AFD69DF
:1043EC006D6A0595049403900291019200937B6889
:1043FC00BA68F968304600F0C7FAFB691B68FA69BD
:10440C005A65FB693033FB61FB691B4A934234BF2D
:10441C0001230023DBB2002BCCD100F0DFFF154BC6
:10442C00BB6118E0BB69D3E90A23C7E90423D7E9C8
:10443C0004234FF0FF304FF0FF318B4208BF824214
:10444C0006D0BB691968D7E90423084607F00DFDAF
:10445C00BB693033BB61BB69074A934234BF01234C
:10446C000023DBB2002BDDD100F0F8FF00BF2437B6
:10447C00BD46F0BD00D8000000D8000080B500AFEC
:10448C00044A054BD31A1A460021034807F03AFD9B
:10449C0080BD00BF280400208001002080B586B0BC
:1044AC0000AF0346FB71FB79114A52F823307B6154
:1044BC0011E07B695B683B613B69002B04D0786938
:1044CC0007F03EFDF86003E07B691B689847F860D5
:1044DC007B6908337B61FB790133054A52F8233041
:1044EC007A699A42E5D300BF00BF1837BD4680BD3C
:1044FC005001002080B584B000AFF860B9607A60DC
:10450C000B4B01221A700320FFF7C8FF02F05EF874
:10451C0007F04CFD0420FFF7C1FFFFF745FF02F049
:10452C00BFFA044807F0CEFC00BF1037BD4680BD73
:10453C00270400208801002080B58CB006AF78607D
:10454C007B68DB01174A13447B617A6813469B0036
:10455C0013449B01144A13443B614FF4A073FB605A
:10456C000023BB607A6813469B0013449B000F4AE0
:10457C001344BA680592012204920F22039200227E
:10458C000292002201920093094BFA68396978690A
:10459C0000F0FAF9786907F085FC00BF1837BD46C2
:1045AC0080BD00BF0802002028080020F003002076
:1045BC00D1BF000080B582B000AF78607868FFF79B
:1045CC00BBFF7B68DB01174A991817487A681346BA
:1045DC009B0013449B0003440C3319607B68D8B2D6
:1045EC0011497A6813469B0013449B000B4410330B
:1045FC0002461A707B68DB020C4A1344184607F01B
:10460C0014FC034603F5006107487A6813469B00C7
:10461C0013449B0003440433196000BF0837BD46A4
:10462C0080BD00BF08020020F003002068090020B4
:10463C0080B588B006AF00F0B7FF124B124A5A6132
:10464C00124B05930123049300230393002302933D
:10465C0000230193002300930D4B4FF480620D490E
:10466C00094800F091F97860074807F01BFC0648F0
:10467C0000F0FCFB0020FFF79DFF7B681846083715
:10468C00BD4680BDF003002088010020B8D8000092
:10469C00014500002804002080B582B000AF78608E
:1046AC00024A79680248FCF787FE00BF014500000A
:1046BC008801002080B584B000AF07F013FC002007
:1046CC00FFF7ECFE2D4807F0B0FB034603F5006343
:1046DC00FB60FB68BB60BB6883F3088800BF274B9B
:1046EC007B607B6883F30A8800BF00BFFF216FF0FB
:1046FC000100FFF71BFE00216FF00400FFF716FE10
:10470C0000216FF00B00FFF711FE00216FF00A0083
:10471C00FFF70CFE00216FF00900FFF707FE184BA6
:10472C005B6A174A43F4E023536220214FF0FF30B9
:10473C00FFF7FCFD00BFFCF7CDFCFCF769FE104B4E
:10474C004FF0FF329A620E4B4FF0FF32DA6200BF2D
:10475C00FDF70AF8FCF7B0FE00BF0A4800F050F96C
:10476C00FFF774FD0120FFF799FE0220FFF796FE7C
:10477C00FFF75EFF03461846FFF78EFF680900201F
:10478C0000ED00E08802002080B598B000AF7860A2
:10479C00424B3B64EFF31183FB63FB6BBB63202346
:1047AC007B637B6B83F3128800BFBFF36F8F00BFFB
:1047BC00BB6BFB603B6C3B6300BF3B6CFB6200BFA5
:1047CC00FB687B617B687B6500233B657B6DFB64D1
:1047DC000023BB64F86C07F035FC78647B6C002B11
:1047EC0001D07B6CBB64BB6C3B653B6D002B14BF79
:1047FC0001230023DBB2002B05D0386D07F068FCD9
:10480C00386D07F048FC3B6DBB65BB6D002B14BFCE
:10481C0001230023DBB2002B0ED0BB6DBB62002347
:10482C007B62BB6A7A6A9A6700BFB86D00F01EFBA8
:10483C00012387F85F3013E07B689B687A68916886
:10484C007A68D268914201D0012200E000221A4419
:10485C007B689A60786807F055FC034687F85F30F0
:10486C0097F85F30002B04D079690C4808F061F898
:10487C0010E00A4B3B627B693B613B69FB61FB6966
:10488C00BB61BB6983F3118800BFBFF36F8F00BF9F
:10489C0000BF00BF00BF6037BD4680BD10040020C4
:1048AC0080B598B002AFF860C7E90023354B3B6583
:1048BC00EFF31183FB64FB6CBB6420237B647B6C88
:1048CC0083F3128800BFBFF36F8F00BFBB6CBB615B
:1048DC003B6D3B6400BF3B6DFB6300BFBB693B6240
:1048EC00FB689B68002B14BF01230023DBB2002B59
:1048FC0018D0FB689B685A1EFB689A60214BBB63FF
:10490C003B6AFB61FB697B637B6B3B633B6B83F3B8
:10491C00118800BFBFF36F8F00BF00BF00BF002323
:10492C007B6529E0D7E900234FF000004FF0000130
:10493C008B4208BF824214D1124BFB623B6A7B61F3
:10494C007B69BB62BB6A7B627B6A83F3118800BFA5
:10495C00BFF36F8F00BF00BF00BF6FF00F037B650D
:10496C000AE0F968D7E90023CDE900230A46396A41
:10497C00044800F0DBFC78657B6D18465837BD4663
:10498C0080BD00BF1004002080B58AB004AFF86071
:10499C00B9607A603B60FB685833184607F0FDFB42
:1049AC00F8683B6B0422F96A07F04FFC7A68B96827
:1049BC00F86807F00FFC7861BB6A02937B6A01937D
:1049CC003B6A00933B687A69B968F868FCF7C4FCE9
:1049DC00FB6800225A65094B9B68002B04D1FB68CD
:1049EC000022DA667B6905E0044B9B68DA6EFB6893
:1049FC00DA667B6918461837BD4680BDF003002087
:104A0C0080B483B000AF78607B6801225A737B68F6
:104A1C0001221A737B6800221A667B6800225A6690
:104A2C007B680022DA66044A7B68936000BF0C370F
:104A3C00BD4680BC704700BFF003002080B584B039
:104A4C0000AFF860C7E90023FB6803F11800D7E951
:104A5C000023034901F014FB00BF1037BD4680BD95
:104A6C00D3C8000080B400AF044B9B68DA7B013ADA
:104A7C00D2B2DA7300BFBD4680BC7047F003002091
:104A8C0080B487B000AF78607B683B61124B9B6849
:104A9C003A695A67104B9B686FF00A029A670F4B82
:104AAC005B680E4A43F0805353600023FB60FB6845
:104ABC00BB60BB6883F3118800BFBFF36F8F00BF6F
:104ACC0000BF054B9B689B6F7B617B6918461C374D
:104ADC00BD4680BC704700BFF003002000ED00E035
:104AEC0080B59AB000AF7860786807F040FD034657
:104AFC00002B19D07B687B66786E07F055FD786EBD
:104B0C0007F006FE0346002B0DD07B6E3B663B6E1A
:104B1C00FB65684BBB653B6E7B657B6D184607F090
:104B2C0072FC00BF00BF00BF7B683B63386B07F0B3
:104B3C002BFD386B07F0ECFD0346002B52D03B6B82
:104B4C00FB62FB6ABB625B4B7B62FB6A3B62786A13
:104B5C0007F0DAFB0346002B04D0786A07F0D4FB8D
:104B6C00034600E00023FB6133E03B6ABB61FB6959
:104B7C007B61BB6993F90E303B617B6993F90E3015
:104B8C00FB603A69FB689A4203D0FA683B69D31A16
:104B9C0000E00023002B06DDFB693A6A114618463B
:104BAC0007F003FC1DE0FB69002B10D0FB691946D4
:104BBC00786A07F0CEFB0346002B06D0FB6919463A
:104BCC00786A07F0C6FB034602E0002300E00023EE
:104BDC00FB61FB69002BC8D13B6A1946786A07F068
:104BEC00CBFB00BF00BF344B9B687A689A420CBF6A
:104BFC0001230023DBB23B652E4BFB640023BB641B
:104C0C00F86C07F081FB78647B6C002B01D07B6C1B
:104C1C00BB64BB6C00BF3B643B6C002B02D1264BCE
:104C2C00DB6800E03B6CFB63FB6BBB633B6D7B6346
:104C3C007B6B002B01D0012322E01F4B9B68184695
:104C4C0007F03DFC0346002B01D0012318E01A4B62
:104C5C009B68184607F019FC0346002B05D1B86B6E
:104C6C0007F023FC0346002B01D0012308E0B86BAE
:104C7C0007F039FC0346002B01D0012300E0002390
:104C8C00002B0ED00C4B9B68FA6B9A4202D0F86B3F
:104C9C0001F0F2F8F86B07F072FD074AFB6B5361F9
:104CAC0003E0054B9B68044A536100BF00BF6837A3
:104CBC00BD4680BD08040020F003002080B594B0F0
:104CCC0000AF7860786807F052FC034683F001036C
:104CDC00DBB2002B00F0C280786807F01DFC0346A5
:104CEC00002B00F0BB807B68FB62F86A07F04CFC81
:104CFC00F86A07F00DFD0346002B52D0FB6ABB622D
:104D0C00BB6A7B62574B3B62BB6AFB61386A07F03C
:104D1C00FBFA0346002B04D0386A07F0F5FA034679
:104D2C0000E00023BB6133E0FB697B61BB693B6145
:104D3C007B6993F90E30FB603B6993F90E30BB60D5
:104D4C00FA68BB689A4203D0BA68FB68D31A00E0D1
:104D5C000023002B06DDBB69FA691146184607F0E3
:104D6C0024FB1DE0BB69002B10D0BB691946386AC7
:104D7C0007F0EFFA0346002B06D0BB691946386AD8
:104D8C0007F0E7FA034602E0002300E00023BB61D2
:104D9C00BB69002BC8D1FB691946386A07F0ECFADD
:104DAC0000BF00BF0023FB642E4BBB6400237B645D
:104DBC00B86C07F0A9FA38643B6C002B01D03B6C43
:104DCC007B647B6C00BFFB63FB6B002B02D1264B1F
:104DDC00DB6800E0FB6BBB63BB6B7B63FB6C3B6317
:104DEC003B6B002B01D0012322E01F4B9B68184624
:104DFC0007F065FB0346002B01D0012318E01A4B8A
:104E0C009B68184607F041FB0346002B05D1786BD5
:104E1C0007F04BFB0346002B01D0012308E0786B15
:104E2C0007F061FB0346002B01D0012300E00023B7
:104E3C00002B0ED00C4B9B68BA6B9A4202D0B86B0D
:104E4C0001F01AF8B86B07F09AFC074ABB6B536178
:104E5C0003E0054B9B68044A536100BF00BF503709
:104E6C00BD4680BD08040020F003002080B590B042
:104E7C0000AF78600023BB611F4BFB63EFF3118322
:104E8C00BB63BB6B7B6320233B633B6B83F312885D
:104E9C0000BFBFF36F8F00BF7B6BFB60FB6BFB62D4
:104EAC0000BFFB6BBB6200BFFB687B611BE07868DB
:104EBC0007F06EFC0346002B02D17868FFF7FEFE6C
:104ECC000D4B7B627B693B613B693B623B6AFB61DF
:104EDC00FB6983F3118800BFBFF36F8F00BF00BF66
:104EEC0000BF0123BB61BB69002BE0D000BF00BF3A
:104EFC004037BD4680BD00BF1004002090B59DB06A
:104F0C0000AF786039608E4B9B68184607F01CFC2C
:104F1C000346002B00F0D880894B9C68884B9B681B
:104F2C00184607F0FFFB0346002B01D0082300E0D6
:104F3C001023BC6687F86730002387F86630BB6E99
:104F4C005A7B97F867301340DBB2002B40F0BC80E3
:104F5C00BB6E5A7B97F867301343DAB2BB6E5A7349
:104F6C00B86E07F004FB0346002B19D0BB6E3B66F2
:104F7C00386E07F019FB386E07F0CAFB0346002B9E
:104F8C000DD03B6EFB65FB6DBB656E4B7B65FB6DA6
:104F9C003B653B6D184607F036FA00BF00BF00BFFB
:104FAC0097F86730082B21D1BB6E9B68002B02D081
:104FBC00B86E07F086FBB86E07F05AFABB6E583322
:104FCC00184607F083FD5E4B9B68BA6E9A420DD172
:104FDC00EFF30583FB64FB6C002B14BF0123002350
:104FEC00DBB2002B02D0012387F866300123BB64AF
:104FFC00544B7B6400233B64786C07F085F9F863B1
:10500C00FB6B002B01D0FB6B3B643B6C00BFBB63A9
:10501C00BB6B002B02D14A4BDB6800E0BB6B7B63A4
:10502C007B6B3B63BB6CFB62FB6A002B01D00123E7
:10503C0022E0434B9B68184607F041FA0346002BCD
:10504C0001D0012318E03E4B9B68184607F01DFA6F
:10505C000346002B05D1386B07F027FA0346002BCB
:10506C0001D0012308E0386B07F03DFA0346002B12
:10507C0001D0012300E00023002B0ED0304B9B68A5
:10508C007A6B9A4202D0786B00F0F6FE786B07F0E0
:10509C0076FB2B4A7B6B536103E0294B9B68284AB8
:1050AC00536100BF97F86730102B03D1B86E07F02F
:1050BC005DFB09E097F86630002B02D02248FFF721
:1050CC009FFCB86E07F052FB204BBB623B68BB6089
:1050DC00BB687B627B6A3B623B6A83F3118800BFCF
:1050EC00BFF36F8F00BF00BF00BF1DE0EFF3118354
:1050FC007B617B693B612023FB60FB6883F3128837
:10510C0000BFBFF36F8F00BF3B69FB6606F072FFF9
:10511C00FB6EFB61FB69BB61BB6983F3118800BF4C
:10512C00BFF36F8F00BF00BF786807F00DFB03461D
:10513C00002BDBD100BF00BF7437BD4690BD00BF54
:10514C00F003002008040020880200201004002036
:10515C0080B590B000AF7860786807F008FA034625
:10516C00002B19D07B68FB63F86B07F01DFAF86B0A
:10517C0007F0CEFA0346002B0DD0FB6BBB63BB6B69
:10518C007B63394B3B63BB6BFB62FB6A184607F0D6
:10519C003AF900BF00BF00BF344B9B687A689A4253
:1051AC000CBF01230023DBB2BB622F4B7B620023BD
:1051BC003B62786A07F0A8F8F861FB69002B01D014
:1051CC00FB693B623B6A00BFBB61BB69002B02D130
:1051DC00264BDB6800E0BB697B617B693B61BB6A8A
:1051EC00FB60FB68002B01D0012322E01F4B9B6866
:1051FC00184607F064F90346002B01D0012318E090
:10520C001A4B9B68184607F040F90346002B05D152
:10521C00386907F04AF90346002B01D0012308E056
:10522C00386907F060F90346002B01D0012300E038
:10523C000023002B0ED00D4B9B687A699A4202D04A
:10524C00786900F019FE786907F099FA074A7B69CA
:10525C00536103E0054B9B68044A536100BF00BFD8
:10526C004037BD4680BD00BF08040020F00300207D
:10527C0080B590B000AF78600B46FB7000237B616B
:10528C00294BBB63EFF311837B637B6B3B63202365
:10529C00FB62FB6A83F3128800BFBFF36F8F00BF02
:1052AC003B6BBB60BB6BBB6200BFBB6B7B6200BF6D
:1052BC00BB683B6130E07B685B7B03F02803002B11
:1052CC0014BF0123002387F83F3097F83F3083F059
:1052DC000103DBB2002B0CD07B689B68002B02D047
:1052EC00786807F0EEF9786807F0B0F97868FFF79E
:1052FC00E5FC0D4B3B623B69FB60FB68FB61FB69AA
:10530C00BB61BB6983F3118800BFBFF36F8F00BF14
:10531C0000BF00BF01237B617B69002BCBD000BF9A
:10532C0000BF4037BD4680BD1004002080B590B052
:10533C0000AFF860B9607A601A4B9B681A4A136028
:10534C001A4B3B63EFF31183FB62FB6ABB622023B6
:10535C007B627B6A83F3128800BFBFF36F8F00BF41
:10536C00BB6ABB613B6B3B6200BF3B6BFB6100BF2D
:10537C000C4B9868D7E91223796807F090FAFB6810
:10538C007B6300BF094BFB63BB687B61FB6BBB633F
:10539C0000BF7B691846FFF773FB0346184640377E
:1053AC00BD4680BDF00300201C040020100400202A
:1053BC0080B483B000AF084B5B697B60064B9B6885
:1053CC007A689A4214BF01230023DBB218460C37CB
:1053DC00BD4680BC704700BFF003002080B58EB086
:1053EC0000AF00233B611C4B7B63EFF311833B63EA
:1053FC003B6BFB622023BB62BB6A83F3128800BF4A
:10540C00BFF36F8F00BFFB6A7B607B6B7B6200BF5F
:10541C007B6B3B6200BF7B68FB6014E0FFF722FBF9
:10542C000D4BFB61FB68BB60BB68BB61BB697B61FF
:10543C007B6983F3118800BFBFF36F8F00BF00BF80
:10544C0000BF01233B613B69002BE7D000BF00BFCD
:10545C003837BD4680BD00BF1004002080B596B023
:10546C0000AF00233B614D4B7B65EFF311833B6534
:10547C003B6DFB642023BB64BB6C83F3128800BFC1
:10548C00BFF36F8F00BFFB6C7B607B6D7B6400BFD9
:10549C007B6D3B6400BF7B68FB6074E0404B9B689A
:1054AC00DA7B0132D2B2DA7300233B633D4BFB62F1
:1054BC000023BB62F86A06F027FF78627B6A002B38
:1054CC0001D07B6ABB62BB6A00BF3B623B6A002BAC
:1054DC0002D1334BDB6800E03B6AFB61FB69BB61CB
:1054EC003B6B7B617B69002B01D0012322E02C4BB1
:1054FC009B68184606F0E3FF0346002B01D00123FE
:10550C0018E0274B9B68184606F0BFFF0346002B9C
:10551C0005D1B86906F0C9FF0346002B01D0012361
:10552C0008E0B86906F0DFFF0346002B01D0012329
:10553C0000E00023002B0ED0194B9B68FA699A42AD
:10554C0002D0F86900F098FCF86907F018F9144AD1
:10555C00FB69536103E0124B9B68114A536100BF16
:10556C000E4BFB63FB68BB60BB68BB63BB6B7B63B5
:10557C007B6B83F3118800BFBFF36F8F00BF00BF3D
:10558C0000BF01233B613B69002B87D000BF07F0B4
:10559C007FF800BF5837BD4680BD00BF1004002007
:1055AC00F00300200804002080B500AF024807F08B
:1055BC0015FA00BF80BD00BF0404002080B59AB06E
:1055CC0000AF624B3B62EFF31183FB61FB69BB6184
:1055DC0020237B617B6983F3128800BFBFF36F8F3D
:1055EC0000BFBB697B603B6A3B6100BF3B6AFB60F1
:1055FC0000BF7B68BB60564BFB63564B9B681946E0
:10560C00F86B06F093FEB863524B9B68184606F095
:10561C00E5FE26E0BB6B7B634E4B9B683B637B6B71
:10562C00FB623B6B93F90E30BB62FB6A93F90E3055
:10563C007B62BA6A7B6A9A4203D07A6ABB6AD31AD3
:10564C0000E00023002B07DD7B6B424A9268114679
:10565C00184606F0AAFE0DE0B96BF86B06F066FE74
:10566C00B863BB6B002BD5D13A4B9B681946F86BD2
:10567C0006F082FE00BF0123FB65354BBB650023A2
:10568C007B65B86D06F040FE38653B6D002B01D094
:10569C003B6D7B657B6D00BFFB64FB6C002B02D10B
:1056AC002C4BDB6800E0FB6CBB64BB6C7B64FB6D60
:1056BC003B643B6C002B01D0012322E0254B9B6803
:1056CC00184606F0FCFE0346002B01D0012318E01F
:1056DC00204B9B68184606F0D8FE0346002B05D1DC
:1056EC00786C06F0E2FE0346002B01D0012308E0A3
:1056FC00786C06F0F8FE0346002B01D0012300E085
:10570C000023002B0ED0134B9B68BA6C9A4202D02C
:10571C00B86C00F0B1FBB86C07F031F80D4ABB6CFB
:10572C00536103E00B4B9B680A4A536100BF074B64
:10573C007B66BB683B607B6E3B6600BF3B68184674
:10574C00FFF79EF900BF6837BD4680BD10040020EE
:10575C0008040020F0030020F0B593B000AFC7E9B7
:10576C00000100BFD7E90001014303D106F062FE3E
:10577C0000236CE0D7E900016FF0010C4FF0FF360D
:10578C00BCEB000266EB0103012A73F1000306DA9D
:10579C0007F014FB02463B6813447B6404E03A6850
:1057AC006FF001039B1A7B64D7E90023C7E906233A
:1057BC00294B7B63EFF311833B633B6BFB62202331
:1057CC00BB62BB6A83F3128800BFBFF36F8F00BF4D
:1057DC00FB6A3B617B6B7B6200BF7B6B3B6200BFF8
:1057EC003B697B611D4B9B681D4A13601B4B9B687F
:1057FC001846FFF7ADFC194B9968D7E90623084604
:10580C00FFF71CF9154B9B68184606F00FFF124B5F
:10581C00FB637B69FB60FB6BBB6300BFFB681846DB
:10582C00FFF72EF907F0CAFA02467B6C9B1A3B6411
:10583C003B6CDA171C461546C7E90045D7E900232F
:10584C00012A73F1000301DB3B6800E000231846DA
:10585C004C37BD46F0BD00BF10040020F003002003
:10586C001C04002080B58EB000AF7860214B7B63A8
:10587C00EFF311833B633B6BFB622023BB62BB6A80
:10588C0083F3128800BFBFF36F8F00BFFB6ABB604E
:10589C007B6B7B6200BF7B6B3B6200BFBB683B6179
:1058AC00786806F0B1FE0346002B0DD0786806F040
:1058BC00DFFD786806F0CAFE7868FFF7FFF93969F2
:1058CC000C4807F036F810E00A4BFB613B69FB60B3
:1058DC00FB68BB61BB697B617B6983F3118800BF8B
:1058EC00BFF36F8F00BF00BF00BF00BF3837BD468E
:1058FC0080BD00BF1004002080B400AF024B9B6839
:10590C001846BD4680BC7047F003002080B5C0B07F
:10591C0000AF7860786806F0A9FE034687F8FF3080
:10592C00C44BC7F8F830EFF31183C7F8F430D7F84D
:10593C00F430C7F8F0302023C7F8EC30D7F8EC304F
:10594C0083F3128800BFBFF36F8F00BFD7F8F0301E
:10595C00FB60D7F8F830C7F8E83000BFD7F8F8305C
:10596C00C7F8E43000BFFB68FB627B685B7B03F02D
:10597C000803002B15D0AF4BC7F8E030FB6A3B6136
:10598C003B69C7F8DC30D7F8DC30C7F8D830D7F82B
:10599C00D83083F3118800BFBFF36F8F00BF00BFF7
:1059AC00DFE17B68C7F8D430FB6ABB62012387F860
:1059BC00D330D7F8D4305833C7F8CC30D7F8D4001C
:1059CC0006F0E6FEC7F8C800D7F8C830002B37D071
:1059DC00D7F8D4305A7B97F8D330002B01D0202342
:1059EC0000E040231343DAB2D7F8D4305A73EFF304
:1059FC000583C7F8C430D7F8C430002B14BF01237B
:105A0C000023DBB2002B05D0B96AD7F8D400FFF71E
:105A1C0075FA92E1884B9B68D7F8CC10184606F0C3
:105A2C00C1FE844BC7F8C030BB6A7B61D7F8C0306D
:105A3C00C7F8BC3000BF7B691846FFF721F87CE142
:105A4C0097F8D330002B01D0082200E01022D7F8B1
:105A5C00D430C7F8B830134687F8B730002387F82E
:105A6C00B630D7F8B8305A7B97F8B7301340DBB262
:105A7C00002B40F0F080D7F8B8305A7B97F8B7304D
:105A8C001343DAB2D7F8B8305A73D7F8B80006F027
:105A9C006EFD0346002B25D0D7F8B830C7F8B030D0
:105AAC00D7F8B00006F080FDD7F8B00006F030FE55
:105ABC000346002B15D0D7F8B030C7F8AC30D7F868
:105ACC00AC30C7F8A8305D4BC7F8A430D7F8AC3071
:105ADC00C7F8A030D7F8A030184606F094FC00BFE9
:105AEC0000BF00BF97F8B730082B28D1D7F8B830D3
:105AFC009B68002B03D0D7F8B80006F0E2FDD7F86E
:105B0C00B80006F0B5FCD7F8B8305833184606F094
:105B1C00DDFF494B9B68D7F8B8209A420FD1EFF3C1
:105B2C000583C7F89C30D7F89C30002B14BF012399
:105B3C000023DBB2002B02D0012387F8B6300123FF
:105B4C00C7F898303D4BC7F894300023C7F8903015
:105B5C00D7F8940006F0D8FBC7F88C00D7F88C3037
:105B6C00002B03D0D7F88C30C7F89030D7F8903092
:105B7C0000BFC7F88830D7F88830002B02D12E4BE5
:105B8C00DB6801E0D7F88830C7F88430D7F8843068
:105B9C00C7F88030D7F89830FB67FB6F002B01D02B
:105BAC00012324E0244B9B68184606F088FC03462E
:105BBC00002B01D001231AE01F4B9B68184606F0FE
:105BCC0064FC0346002B06D1D7F8800006F06DFC70
:105BDC000346002B01D0012309E0D7F8800006F022
:105BEC0082FC0346002B01D0012300E00023002B94
:105BFC0012D0114B9B68D7F884209A4203D0D7F867
:105C0C00840000F039F9D7F8840006F0B8FD0A4A90
:105C1C00D7F88430536103E0074B9B68064A536105
:105C2C0000BF97F8B730102B0AD1D7F8B80006F0A0
:105C3C009DFD10E010040020F0030020080400205B
:105C4C0097F8B630002B02D04848FEF7D9FED7F8AB
:105C5C00B80006F08BFD464B9B68D7F8D4209A42CF
:105C6C005AD1EFF30583BB67BB6F002B14BF012325
:105C7C000023DBB283F00103DBB2002B4CD0D7F84E
:105C8C00D40006F0F3FC0346002B39D0394B7B676C
:105C9C00BB6AFB61FB693B673B6FFB66FB6E83F387
:105CAC00118800BFBFF36F8F00BF00BF00BF002380
:105CBC00BB66BB6E7B667B6E83F3118800BFBFF344
:105CCC006F8F00BF00BF0423184602DF294B3B66D1
:105CDC00EFF31183FB65FB6DBB6520237B657B6D4F
:105CEC0083F3128800BFBFF36F8F00BFBB6DBB6126
:105CFC003B6E3B6500BF3B6EFB6400BFBB69BB6288
:105D0C001C4BBB64BB6A3B62BB6C7B6400BF3B6AD5
:105D1C001846FEF7B5FE10E0164B3B64BB6A7B627F
:105D2C007B6AFB63FB6BBB63BB6B83F3118800BFAC
:105D3C00BFF36F8F00BF00BF00BF00BF97F8FF30ED
:105D4C00002B0ED000237B637B6B3B633B6B83F39D
:105D5C00118800BFBFF36F8F00BF00BF042318462C
:105D6C0002DF07F58077BD4680BD00BF88020020AA
:105D7C00F00300201004002080B483B000AF7860E2
:105D8C007B68054A93420CBF01230023DBB2184603
:105D9C000C37BD4680BC70470802002080B485B02B
:105DAC0000AF7860044B1B68FB60FB681846143727
:105DBC00BD4680BC704700BF1004002080B584B085
:105DCC0000AF7860786806F0A7FE0346002B29D058
:105DDC007868FFF7E3FF0346002B23D07B6893F929
:105DEC000E301A46154B1B681946104606F0C9FEB4
:105DFC00034683F00103DBB2002B13D0786806F066
:105E0C009BFE034683F00103DBB2002B0AD07868BB
:105E1C00FFF7B2FF034683F00103DBB2002B01D086
:105E2C00012300E00023FB73FB7B03F00103FB73F6
:105E3C00FB7B18461037BD4680BD00BF1404002004
:105E4C0080B485B000AF78607B68084A9B1ADB1081
:105E5C00074A02FB03F3FB60064AFB68134401226A
:105E6C001A7000BF1437BD4680BC70470803002071
:105E7C00ABAAAAAA180400202DE9904385B000AF64
:105E8C007860194B1B7CFB60FA6813465B0013446B
:105E9C00DB00164A1344184600F0EAF9144AFB6872
:105EAC00134400221A707868FFF788FF0346002B12
:105EBC0014D0FA6813465B001344DB000B4A9C18A1
:105ECC007868FFF76BFF0346013BDA17984691465B
